{
  "contractName": "DecentralBank",
  "abi": [
    {
      "inputs": [
        {
          "internalType": "contract RWD",
          "name": "_rwd",
          "type": "address"
        },
        {
          "internalType": "contract Tether",
          "name": "_tether",
          "type": "address"
        }
      ],
      "stateMutability": "nonpayable",
      "type": "constructor"
    },
    {
      "inputs": [
        {
          "internalType": "address",
          "name": "",
          "type": "address"
        }
      ],
      "name": "hasStaked",
      "outputs": [
        {
          "internalType": "bool",
          "name": "",
          "type": "bool"
        }
      ],
      "stateMutability": "view",
      "type": "function",
      "constant": true
    },
    {
      "inputs": [
        {
          "internalType": "address",
          "name": "",
          "type": "address"
        }
      ],
      "name": "isStaking",
      "outputs": [
        {
          "internalType": "bool",
          "name": "",
          "type": "bool"
        }
      ],
      "stateMutability": "view",
      "type": "function",
      "constant": true
    },
    {
      "inputs": [],
      "name": "name",
      "outputs": [
        {
          "internalType": "string",
          "name": "",
          "type": "string"
        }
      ],
      "stateMutability": "view",
      "type": "function",
      "constant": true
    },
    {
      "inputs": [],
      "name": "owner",
      "outputs": [
        {
          "internalType": "address",
          "name": "",
          "type": "address"
        }
      ],
      "stateMutability": "view",
      "type": "function",
      "constant": true
    },
    {
      "inputs": [],
      "name": "rwd",
      "outputs": [
        {
          "internalType": "contract RWD",
          "name": "",
          "type": "address"
        }
      ],
      "stateMutability": "view",
      "type": "function",
      "constant": true
    },
    {
      "inputs": [
        {
          "internalType": "uint256",
          "name": "",
          "type": "uint256"
        }
      ],
      "name": "stakers",
      "outputs": [
        {
          "internalType": "address",
          "name": "",
          "type": "address"
        }
      ],
      "stateMutability": "view",
      "type": "function",
      "constant": true
    },
    {
      "inputs": [
        {
          "internalType": "address",
          "name": "",
          "type": "address"
        }
      ],
      "name": "stakingBalance",
      "outputs": [
        {
          "internalType": "uint256",
          "name": "",
          "type": "uint256"
        }
      ],
      "stateMutability": "view",
      "type": "function",
      "constant": true
    },
    {
      "inputs": [],
      "name": "tether",
      "outputs": [
        {
          "internalType": "contract Tether",
          "name": "",
          "type": "address"
        }
      ],
      "stateMutability": "view",
      "type": "function",
      "constant": true
    },
    {
      "inputs": [
        {
          "internalType": "uint256",
          "name": "_amount",
          "type": "uint256"
        }
      ],
      "name": "depositToken",
      "outputs": [],
      "stateMutability": "nonpayable",
      "type": "function"
    },
    {
      "inputs": [],
      "name": "issueToken",
      "outputs": [],
      "stateMutability": "nonpayable",
      "type": "function"
    },
    {
      "inputs": [],
      "name": "untakeTokens",
      "outputs": [],
      "stateMutability": "nonpayable",
      "type": "function"
    }
  ],
  "bytecode": "0x60806040526040518060400160405280600e81526020017f446563656e7472616c2042616e6b000000000000000000000000000000000000815250600190816200004a9190620003c2565b503480156200005857600080fd5b50604051620016663803806200166683398181016040528101906200007e91906200056c565b81600360006101000a81548173ffffffffffffffffffffffffffffffffffffffff021916908373ffffffffffffffffffffffffffffffffffffffff16021790555080600260006101000a81548173ffffffffffffffffffffffffffffffffffffffff021916908373ffffffffffffffffffffffffffffffffffffffff160217905550336000806101000a81548173ffffffffffffffffffffffffffffffffffffffff021916908373ffffffffffffffffffffffffffffffffffffffff1602179055505050620005b3565b600081519050919050565b7f4e487b7100000000000000000000000000000000000000000000000000000000600052604160045260246000fd5b7f4e487b7100000000000000000000000000000000000000000000000000000000600052602260045260246000fd5b60006002820490506001821680620001ca57607f821691505b602082108103620001e057620001df62000182565b5b50919050565b60008190508160005260206000209050919050565b60006020601f8301049050919050565b600082821b905092915050565b6000600883026200024a7fffffffffffffffffffffffffffffffffffffffffffffffffffffffffffffffff826200020b565b6200025686836200020b565b95508019841693508086168417925050509392505050565b6000819050919050565b6000819050919050565b6000620002a36200029d62000297846200026e565b62000278565b6200026e565b9050919050565b6000819050919050565b620002bf8362000282565b620002d7620002ce82620002aa565b84845462000218565b825550505050565b600090565b620002ee620002df565b620002fb818484620002b4565b505050565b5b81811015620003235762000317600082620002e4565b60018101905062000301565b5050565b601f82111562000372576200033c81620001e6565b6200034784620001fb565b8101602085101562000357578190505b6200036f6200036685620001fb565b83018262000300565b50505b505050565b600082821c905092915050565b6000620003976000198460080262000377565b1980831691505092915050565b6000620003b2838362000384565b9150826002028217905092915050565b620003cd8262000148565b67ffffffffffffffff811115620003e957620003e862000153565b5b620003f58254620001b1565b6200040282828562000327565b600060209050601f8311600181146200043a576000841562000425578287015190505b620004318582620003a4565b865550620004a1565b601f1984166200044a86620001e6565b60005b8281101562000474578489015182556001820191506020850194506020810190506200044d565b8683101562000494578489015162000490601f89168262000384565b8355505b6001600288020188555050505b505050505050565b600080fd5b600073ffffffffffffffffffffffffffffffffffffffff82169050919050565b6000620004db82620004ae565b9050919050565b6000620004ef82620004ce565b9050919050565b6200050181620004e2565b81146200050d57600080fd5b50565b6000815190506200052181620004f6565b92915050565b60006200053482620004ce565b9050919050565b620005468162000527565b81146200055257600080fd5b50565b60008151905062000566816200053b565b92915050565b60008060408385031215620005865762000585620004a9565b5b6000620005968582860162000510565b9250506020620005a98582860162000555565b9150509250929050565b6110a380620005c36000396000f3fe608060405234801561001057600080fd5b50600436106100a95760003560e01c80636215be77116100715780636215be77146101425780636f49712b1461015e5780638da5cb5b1461018e578063a1ee8c78146101ac578063c93c8f34146101b6578063fd5e6dd1146101e6576100a9565b806306fdde03146100ae5780631a8972d3146100cc57806333b890b0146100ea57806345bc78ab146100f45780635efc071a14610124575b600080fd5b6100b6610216565b6040516100c39190610a99565b60405180910390f35b6100d46102a4565b6040516100e19190610b3a565b60405180910390f35b6100f26102ca565b005b61010e60048036038101906101099190610b98565b610492565b60405161011b9190610bde565b60405180910390f35b61012c6104aa565b6040516101399190610c1a565b60405180910390f35b61015c60048036038101906101579190610c61565b6104d0565b005b61017860048036038101906101739190610b98565b610775565b6040516101859190610ca9565b60405180910390f35b610196610795565b6040516101a39190610cd3565b60405180910390f35b6101b46107b9565b005b6101d060048036038101906101cb9190610b98565b6109a1565b6040516101dd9190610ca9565b60405180910390f35b61020060048036038101906101fb9190610c61565b6109c1565b60405161020d9190610cd3565b60405180910390f35b6001805461022390610d1d565b80601f016020809104026020016040519081016040528092919081815260200182805461024f90610d1d565b801561029c5780601f106102715761010080835404028352916020019161029c565b820191906000526020600020905b81548152906001019060200180831161027f57829003601f168201915b505050505081565b600360009054906101000a900473ffffffffffffffffffffffffffffffffffffffff1681565b6000600460003373ffffffffffffffffffffffffffffffffffffffff1673ffffffffffffffffffffffffffffffffffffffff16815260200190815260200160002054905060008111610351576040517f08c379a000000000000000000000000000000000000000000000000000000000815260040161034890610dc0565b60405180910390fd5b600260009054906101000a900473ffffffffffffffffffffffffffffffffffffffff1673ffffffffffffffffffffffffffffffffffffffff1663a9059cbb33836040518363ffffffff1660e01b81526004016103ae929190610de0565b6020604051808303816000875af11580156103cd573d6000803e3d6000fd5b505050506040513d601f19601f820116820180604052508101906103f19190610e35565b506000600460003373ffffffffffffffffffffffffffffffffffffffff1673ffffffffffffffffffffffffffffffffffffffff168152602001908152602001600020819055506000600660003373ffffffffffffffffffffffffffffffffffffffff1673ffffffffffffffffffffffffffffffffffffffff16815260200190815260200160002060006101000a81548160ff02191690831515021790555050565b60046020528060005260406000206000915090505481565b600260009054906101000a900473ffffffffffffffffffffffffffffffffffffffff1681565b60008111610513576040517f08c379a000000000000000000000000000000000000000000000000000000000815260040161050a90610eae565b60405180910390fd5b600260009054906101000a900473ffffffffffffffffffffffffffffffffffffffff1673ffffffffffffffffffffffffffffffffffffffff166323b872dd3330846040518463ffffffff1660e01b815260040161057293929190610ece565b6020604051808303816000875af1158015610591573d6000803e3d6000fd5b505050506040513d601f19601f820116820180604052508101906105b59190610e35565b5080600460003373ffffffffffffffffffffffffffffffffffffffff1673ffffffffffffffffffffffffffffffffffffffff16815260200190815260200160002060008282546106059190610f34565b92505081905550600560003373ffffffffffffffffffffffffffffffffffffffff1673ffffffffffffffffffffffffffffffffffffffff16815260200190815260200160002060009054906101000a900460ff16156106c2576007339080600181540180825580915050600190039060005260206000200160009091909190916101000a81548173ffffffffffffffffffffffffffffffffffffffff021916908373ffffffffffffffffffffffffffffffffffffffff1602179055505b6001600660003373ffffffffffffffffffffffffffffffffffffffff1673ffffffffffffffffffffffffffffffffffffffff16815260200190815260200160002060006101000a81548160ff0219169083151502179055506001600560003373ffffffffffffffffffffffffffffffffffffffff1673ffffffffffffffffffffffffffffffffffffffff16815260200190815260200160002060006101000a81548160ff02191690831515021790555050565b60066020528060005260406000206000915054906101000a900460ff1681565b60008054906101000a900473ffffffffffffffffffffffffffffffffffffffff1681565b60008054906101000a900473ffffffffffffffffffffffffffffffffffffffff1673ffffffffffffffffffffffffffffffffffffffff163373ffffffffffffffffffffffffffffffffffffffff1614610847576040517f08c379a000000000000000000000000000000000000000000000000000000000815260040161083e90610fd6565b60405180910390fd5b60005b60078054905081101561099e5760006007828154811061086d5761086c610ff6565b5b9060005260206000200160009054906101000a900473ffffffffffffffffffffffffffffffffffffffff1690506000600460008373ffffffffffffffffffffffffffffffffffffffff1673ffffffffffffffffffffffffffffffffffffffff168152602001908152602001600020549050600081111561098957600360009054906101000a900473ffffffffffffffffffffffffffffffffffffffff1673ffffffffffffffffffffffffffffffffffffffff1663a9059cbb83836040518363ffffffff1660e01b8152600401610944929190610de0565b6020604051808303816000875af1158015610963573d6000803e3d6000fd5b505050506040513d601f19601f820116820180604052508101906109879190610e35565b505b5050808061099690611025565b91505061084a565b50565b60056020528060005260406000206000915054906101000a900460ff1681565b600781815481106109d157600080fd5b906000526020600020016000915054906101000a900473ffffffffffffffffffffffffffffffffffffffff1681565b600081519050919050565b600082825260208201905092915050565b60005b83811015610a3a578082015181840152602081019050610a1f565b83811115610a49576000848401525b50505050565b6000601f19601f8301169050919050565b6000610a6b82610a00565b610a758185610a0b565b9350610a85818560208601610a1c565b610a8e81610a4f565b840191505092915050565b60006020820190508181036000830152610ab38184610a60565b905092915050565b600073ffffffffffffffffffffffffffffffffffffffff82169050919050565b6000819050919050565b6000610b00610afb610af684610abb565b610adb565b610abb565b9050919050565b6000610b1282610ae5565b9050919050565b6000610b2482610b07565b9050919050565b610b3481610b19565b82525050565b6000602082019050610b4f6000830184610b2b565b92915050565b600080fd5b6000610b6582610abb565b9050919050565b610b7581610b5a565b8114610b8057600080fd5b50565b600081359050610b9281610b6c565b92915050565b600060208284031215610bae57610bad610b55565b5b6000610bbc84828501610b83565b91505092915050565b6000819050919050565b610bd881610bc5565b82525050565b6000602082019050610bf36000830184610bcf565b92915050565b6000610c0482610b07565b9050919050565b610c1481610bf9565b82525050565b6000602082019050610c2f6000830184610c0b565b92915050565b610c3e81610bc5565b8114610c4957600080fd5b50565b600081359050610c5b81610c35565b92915050565b600060208284031215610c7757610c76610b55565b5b6000610c8584828501610c4c565b91505092915050565b60008115159050919050565b610ca381610c8e565b82525050565b6000602082019050610cbe6000830184610c9a565b92915050565b610ccd81610b5a565b82525050565b6000602082019050610ce86000830184610cc4565b92915050565b7f4e487b7100000000000000000000000000000000000000000000000000000000600052602260045260246000fd5b60006002820490506001821680610d3557607f821691505b602082108103610d4857610d47610cee565b5b50919050565b7f7374616b696e672062616c616e6365206d757374206265206d6f72652074686160008201527f6e20300000000000000000000000000000000000000000000000000000000000602082015250565b6000610daa602383610a0b565b9150610db582610d4e565b604082019050919050565b60006020820190508181036000830152610dd981610d9d565b9050919050565b6000604082019050610df56000830185610cc4565b610e026020830184610bcf565b9392505050565b610e1281610c8e565b8114610e1d57600080fd5b50565b600081519050610e2f81610e09565b92915050565b600060208284031215610e4b57610e4a610b55565b5b6000610e5984828501610e20565b91505092915050565b7f416d6f756e74206d7573742062652067726561746572207468616e2031000000600082015250565b6000610e98601d83610a0b565b9150610ea382610e62565b602082019050919050565b60006020820190508181036000830152610ec781610e8b565b9050919050565b6000606082019050610ee36000830186610cc4565b610ef06020830185610cc4565b610efd6040830184610bcf565b949350505050565b7f4e487b7100000000000000000000000000000000000000000000000000000000600052601160045260246000fd5b6000610f3f82610bc5565b9150610f4a83610bc5565b9250827fffffffffffffffffffffffffffffffffffffffffffffffffffffffffffffffff03821115610f7f57610f7e610f05565b5b828201905092915050565b7f4f6e6c79206f776e65722063616e2063616c6c2066756e6374696f6e00000000600082015250565b6000610fc0601c83610a0b565b9150610fcb82610f8a565b602082019050919050565b60006020820190508181036000830152610fef81610fb3565b9050919050565b7f4e487b7100000000000000000000000000000000000000000000000000000000600052603260045260246000fd5b600061103082610bc5565b91507fffffffffffffffffffffffffffffffffffffffffffffffffffffffffffffffff820361106257611061610f05565b5b60018201905091905056fea26469706673582212205d9f14d3173b14b9019318401880622e48db1100c2eb6fa58e4b94afa78450b464736f6c634300080f0033",
  "immutableReferences": {},
  "source": "// SPDX-License-Identifier: MIT\r\npragma solidity >=0.4.22 <0.9.0;\r\n\r\nimport './RWD.sol';\r\nimport './Tether.sol';\r\n\r\ncontract DecentralBank {\r\n  address public owner;\r\n  string public name = 'Decentral Bank';\r\n  Tether public tether;\r\n  RWD public rwd;\r\n\r\n  mapping (address=>uint) public  stakingBalance;\r\n  mapping (address=>bool) public  hasStaked;\r\n  mapping (address=>bool) public  isStaking;\r\n\r\n  address[] public stakers;\r\n\r\n  constructor (RWD _rwd, Tether _tether) {\r\n    rwd = _rwd;\r\n    tether = _tether;\r\n    owner = msg.sender;\r\n  }\r\n\r\n  function depositToken(uint _amount) public {\r\n    // check balance before staking \r\n    require(_amount > 0, 'Amount must be greater than 1');\r\n    // require(tether.balanceOf[msg.sender] >= _amount, 'Insufficient Token Balance');\r\n    // transfer tether tokens to contract address\r\n    tether.transferFrom(msg.sender, address(this), _amount);\r\n\r\n    // update staking balance\r\n    stakingBalance[msg.sender] += _amount;\r\n\r\n    if(hasStaked[msg.sender]){\r\n      stakers.push(msg.sender);\r\n    }\r\n\r\n    // update staking status\r\n    isStaking[msg.sender] = true;\r\n    hasStaked[msg.sender] = true;\r\n  }\r\n\r\n  function issueToken() public {\r\n    // only owner restriction \r\n    require(msg.sender == owner, 'Only owner can call function');\r\n    for (uint256 i = 0; i < stakers.length; i++) {\r\n      address recipient = stakers[i];\r\n      uint balance = stakingBalance[recipient];\r\n      if(balance > 0) {\r\n      rwd.transfer(recipient, balance);\r\n      }\r\n    }\r\n  }\r\n\r\n  function untakeTokens() public {\r\n    uint balance = stakingBalance[msg.sender];\r\n    require(balance >0, 'staking balance must be more than 0');\r\n\r\n    tether.transfer(msg.sender, balance);\r\n\r\n    stakingBalance[msg.sender] = 0;\r\n\r\n    isStaking[msg.sender] = false;\r\n  }\r\n  \r\n}\r\n",
  "sourcePath": "C:\\Users\\User\\Desktop\\Full stack\\defi-staking-app-starter-main\\defi-staking-app-starter-main\\defi-staking-app-starter\\src\\contracts\\DecentalBank.sol",
  "compiler": {
    "name": "solc",
    "version": "0.8.15+commit.e14f2714.Emscripten.clang"
  },
  "schemaVersion": "3.4.7",
  "updatedAt": "2022-06-20T15:49:52.621Z",
  "networkType": "ethereum",
  "devdoc": {
    "kind": "dev",
    "methods": {},
    "version": 1
  },
  "userdoc": {
    "kind": "user",
    "methods": {},
    "version": 1
  }
}